:020000040800F2
:100000007806002035020008B3050008AF05000897
:10001000B1050008E5030008190A00080000000007
:10002000000000000000000000000000ED060008D5
:10003000E70300080000000025060008EF0600089E
:100040004F0200084F0200084F0200084F0200084C
:100050004F0200084F0200084F0200084F0200083C
:100060004F0200084F0200084F0200084F0200082C
:100070004F0200084F0200084F0200084F0200081C
:100080004F0200084F0200084F0200080000000065
:100090000000000000000000000000004F02000807
:1000A0004F0200084F0200084F0200084F020008EC
:1000B0004F0200084F020008F10700084F02000835
:1000C0004F0200084F0200084F0200084F020008CC
:1000D0004F0200084F0200084F0200080000000015
:1000E0004F0200084F0200084F0200080000000005
:1000F0000000000000000000000000004F020008A7
:10010000000000004F0200084F0200084F020008E4
:1001100000000000000000000000000000000000DF
:100120004F0200084F0200084F0200084F0200086B
:100130004F02000800000000000000000000000066
:100140000000000000000000000000004F02000856
:100150004F0200084F0200084F0200084F0200083B
:100160004F0200084F0200080000000000000000DD
:10017000000000000000000000000000000000007F
:10018000000000004F020008000000000000000016
:100190004F02000800F002F800F03CF80AA090E8D6
:1001A000000C82448344AAF10107DA4501D100F032
:1001B00031F8AFF2090EBAE80F0013F0010F18BFC3
:1001C000FB1A43F001031847A4080000C40800000C
:1001D000103A24BF78C878C1FAD8520724BF30C873
:1001E00030C144BF04680C60704700000023002445
:1001F00000250026103A28BF78C1FBD8520728BF37
:1002000030C148BF0B6070471FB500F02AFC1FBD0E
:1002100010B510BD00F031F81146FFF7F5FF00F002
:10022000FCFB00F04FF803B4FFF7F2FF03BC00F053
:1002300057F800000948804709480047FEE7FEE7F5
:10024000FEE7FEE7FEE7FEE7FEE7FEE7FEE7FEE786
:1002500004480549054A064B70470000F1060008AE
:100260009501000878000020780600207802002020
:1002700078020020704770477047754600F02CF8F0
:10028000AE4605006946534620F00700854618B083
:1002900020B5FFF7DDFFBDE820404FF000064FF02E
:1002A00000074FF000084FF0000B21F00701AC46AB
:1002B000ACE8C009ACE8C009ACE8C009ACE8C009CA
:1002C0008D46704710B50446AFF300802046BDE868
:1002D0001040FFF7A8BF000000487047180000203A
:1002E00001491820ABBEFEE726000200704700005F
:1002F00039490A78904208BF704770B58AB00870D3
:1003000000244C60487800281CBF0AB070BD01254D
:100310004D700894099405940694079400940194F0
:100320000294039429460220049400F07DF90121EF
:10033000042000F085F92802089002208DF824009E
:1003400003208DF82500254E8DF826408DF8275086
:1003500008A9304600F0D2F802220821304600F009
:1003600015F95320ADF81400F9201D4E0690ADF894
:100370001640ADF81C4005A9304600F00DFB60208A
:10038000ADF80000ADF802500294ADF80C4069469B
:10039000304600F0B3FA0821304600F0F5FA0121AA
:1003A000304600F083FA01221146304600F09EFAF2
:1003B0000121304600F086FA1E2000948DF80000DE
:1003C0008DF801408DF802408DF80350684600F02A
:1003D000F1F80AB070BD00000000002000040240E7
:1003E00000080040FEE770472DE9F04704460D463F
:1003F00088B0284304BF08B0BDE8F0870020354F1F
:100400008046D4F5FA714FF47A794FF4FA5A4FF0E6
:10041000E026A84132D204A800F01EF90598B8429F
:1004200030690AD240F00400306105984FF4FA7147
:10043000B0FBF9F04843706109E020F0040030613E
:1004400005984FF4FA71B0FBFAF048437061C6F8B2
:100450001880306940F001003061306910F4803F4D
:10046000FBD0306920F001003061B4F5FA7445F139
:10047000FF350020D4F5FA71A841CCD3684600F0CE
:10048000EBF80198B842306909D240F004003061BD
:100490000198B0FBF9F0A0FB0401706108E020F0C6
:1004A000040030610198B0FBFAF0A0FB0401706118
:1004B000C6F81880306940F001003061306910F4EE
:1004C000803FFBD0306920F00100306108B0BDE80A
:1004D000F087000000127A0070B505460C462043F4
:1004E00008BF70BD4FF47A700021FFF77DFF6D1ECD
:1004F00044F1FF3455EA0400F4D170BD2DE9F00158
:10050000002201255FF00306D1F800C005FA02F3CE
:100510000CEA030C9C4533D107684FEA420C06FAFB
:100520000CF4A74307600F79D0F8008007FA0CF7A6
:1005300047EA080707600F79012F18BF022F14D16F
:100540008768A74387604F79D0F8088007FA0CF7CF
:1005500047EA08078760476827EA03034360436860
:100560008F799740BFB23B434360C368A343C360E6
:10057000CB7903FA0CF3D0F80CC043EA0C03C36048
:10058000521C102AC0D3BDE8F00170474B07DB0EA8
:100590009A40C90800EB8100016A4FF00F0C0CFA79
:1005A00003F399430162016A114301627047FEE758
:1005B000FEE7704710B4C27801780F244FF0010CA9
:1005C0000AB3174A126801F1E02102F4E062C2F5B1
:1005D000E062C2F30722C2F10403D44042789A4099
:1005E000837823401A43120181F80024007800F038
:1005F0001F010CFA01F14009800000F1E020C0F871
:10060000001110BC704701F01F000CFA00F04909FE
:10061000890001F1E021C1F8800110BC70470000A1
:100620000CED00E070470000044A0029116814BF77
:10063000084321EA00001060704700003038024093
:10064000044A0029116814BF084321EA0000106021
:100650007047000040380240204A10B41168204B17
:1006600011F00C0118BF042901D0082901D0036042
:1006700016E01C49D1F800C0D1F800C00CF03F0CC6
:10068000B3FBFCF3D1F800C00968CCF3881C03FB72
:100690000CF3C1F30141491C4900B3FBF1F10160C6
:1006A00011680F2303EA11110F4B595CD0F800C0F9
:1006B0002CFA01F14160D2F800C0072404EA9C2C16
:1006C00013F80CC021FA0CFCC0F808C0126804EA48
:1006D00052329A5CD140C16010BC70470838024069
:1006E0000024F400043802400800002070477047DE
:1006F000364882B0016841F47001016034480168F5
:1007000041F001010160334900230B60026822F4CB
:10071000102222F08072026000F1040C2E4ACCF804
:100720000020026822F4802202600A1D13600193F7
:100730000093026842F480320260026802F40032E0
:100740000092019A521C0192009A1AB9019AB2F5CC
:10075000A04FF2D1026812F4003F08BF00932FD0DF
:10076000012200921D4A136843F0805313601C4A13
:10077000136843F4404313600A680A600A680A6019
:100780000A6842F480520A60164ACCF800200268D7
:1007900042F080720260026812F0007FFBD0124AC1
:1007A00040F202701060086820F0030008600868DA
:1007B00040F002000860086800F00C000828FAD138
:1007C0000A494FF00060086002B0704788ED00E011
:1007D00000380240083802401030002440380240FF
:1007E0000070004010544107003C024008ED00E05A
:1007F00010B52C4C0121204600F06DF8002808BFF0
:1008000010BD0121204600F05AF82749087800223F
:10081000B8B1087801280DD00878022818D00878D7
:100820000328486824D0B0F57A7F31DB4868B0F5FA
:10083000FA6F24DB4A602046BDE810407D2100F0BD
:10084000A9B84A602046BDE81040002100F0A2B8D7
:100850004868B0F5FA6F1BDB4868B0F57A6F0EDBBD
:100860004A600A702046BDE81040002100F092B8AE
:10087000B0F5FA6F0CDB4868B0F57A6FDADA4868E1
:10088000401C48602046BDE81040002100F082B8BE
:100890004868401C48602046BDE810407D2100F0BB
:1008A00079B80000000800400000002000290188FD
:1008B00014BF41F0800121F0800101807047C943DD
:1008C000018270470029018814BF41F0010121F025
:1008D000010101807047038A002280890B4200EAEF
:1008E00001001CBF0028012210467047002A82899F
:1008F00014BF114322EA01018181704730B4028C98
:1009000022F480720284028C8388B0F81CC00C88A8
:100910002CF0730C44EA0C0422F4007C8D894FF611
:10092000FF7202EA052545EA0C0C4D8802EA05250E
:1009300045EA0C0CA0F18045B5F580351CBFA0F14F
:100940008045B5F5823517D1CD892CF4006C02EACB
:10095000052545EA0C0C8D882CF4806C02EA0525EF
:1009600045EA0C0C0D8A23F4405302EA05152B438B
:100970004D8A02EA05121343838084838968C16328
:10098000A0F820C030BC7047828B22F008021143CF
:1009900081837047C163704710B402881C4BDFF835
:1009A00074C0984218BF604511D0B0F1804F1CBF91
:1009B000A0F18044B4F5806409D0A0F18044B4F57E
:1009C00000641CBFA0F18044B4F5406403D14C889E
:1009D00022F070022243A0F18044B4F580541CBF81
:1009E000A0F18044B4F5A05403D00C8922F44072E5
:1009F000224302804A68C2620A880285984212BF76
:100A00006045897A01860121818210BC704700000F
:100A10000000014000040140FEE705200021FFF72F
:100A20005BFD0220FFF764FC05200021FFF754FD69
:100A30000120FFF75DFC05200021FFF74DFD03209D
:100A4000FFF756FC05200021FFF746FD0420FFF7C5
:100A50004FFC05200021FFF73FFD0020FFF748FC79
:100A6000DBE74FF04070E1EE100A70478C0A000897
:100A70000000002018000000D0010008A40A0008AF
:100A80001800002060060000EC01000800000000D3
:100A90000000000000000000010203040102030442
:040AA0000607080934
:040000050800019559
:00000001FF
